{
  "transactions": [
    {
      "hash": "0xd2270da46635dc1bd7eef9d8663e97cbdf5697e4f9c3e76178c3b54d4800569b",
      "transactionType": "CALL",
      "contractName": null,
      "contractAddress": "0xbe757039fe37613751b1713a6327863081e21ca0",
      "function": "applyChainUpdates((uint64,bool,bytes,bytes,(bool,uint128,uint128),(bool,uint128,uint128))[])",
      "arguments": [
        "[(6898391096552792247, true, 0x000000000000000000000000268aa0efafdf6b7d25d432698cf5fef5ff5f6348, 0x000000000000000000000000f58d546030e23328fe5a9d065987b33aeae18b5a, (false, 0, 0), (false, 0, 0))]"
      ],
      "transaction": {
        "from": "0x1af176aa0a73f81dea68d22c90a182be4845761b",
        "to": "0xbe757039fe37613751b1713a6327863081e21ca0",
        "gas": "0x525dc",
        "value": "0x0",
        "input": "0xdb6327dc0000000000000000000000000000000000000000000000000000000000000020000000000000000000000000000000000000000000000000000000000000000100000000000000000000000000000000000000000000000000000000000000200000000000000000000000000000000000000000000000005fbc02272fbf20b70000000000000000000000000000000000000000000000000000000000000001000000000000000000000000000000000000000000000000000000000000014000000000000000000000000000000000000000000000000000000000000001800000000000000000000000000000000000000000000000000000000000000000000000000000000000000000000000000000000000000000000000000000000000000000000000000000000000000000000000000000000000000000000000000000000000000000000000000000000000000000000000000000000000000000000000000000000000000000000000000000000000000000000000000000000000000000000000000000000000000000000000000000000000000000000000000000000000000000000000000000000000000000000000000000000000000020000000000000000000000000268aa0efafdf6b7d25d432698cf5fef5ff5f63480000000000000000000000000000000000000000000000000000000000000020000000000000000000000000f58d546030e23328fe5a9d065987b33aeae18b5a",
        "nonce": "0x21",
        "chainId": "0xaa36a7"
      },
      "additionalContracts": [],
      "isFixedGasLimit": false
    }
  ],
  "receipts": [
    {
      "status": "0x1",
      "cumulativeGasUsed": "0x6bdc86",
      "logs": [
        {
          "address": "0xbe757039fe37613751b1713a6327863081e21ca0",
          "topics": [
            "0x8d340f17e19058004c20453540862a9c62778504476f6756755cb33bcd6c38c2"
          ],
          "data": "0x0000000000000000000000000000000000000000000000005fbc02272fbf20b700000000000000000000000000000000000000000000000000000000000001000000000000000000000000000000000000000000000000000000000000000000000000000000000000000000000000000000000000000000000000000000000000000000000000000000000000000000000000000000000000000000000000000000000000000000000000000000000000000000000000000000000000000000000000000000000000000000000000000000000000000000000000000000000000000000000000000000000000000000000000000000000000000000000000000000000000000000000000000000000000000000000000000000000000000020000000000000000000000000f58d546030e23328fe5a9d065987b33aeae18b5a",
          "blockHash": "0xc37539afa7d52612a38818274aafbd0b84366eb7de2c74f5ebddb01fa6099bef",
          "blockNumber": "0x9bf286",
          "blockTimestamp": "0x698904e4",
          "transactionHash": "0xd2270da46635dc1bd7eef9d8663e97cbdf5697e4f9c3e76178c3b54d4800569b",
          "transactionIndex": "0x48",
          "logIndex": "0x6f",
          "removed": false
        }
      ],
      "logsBloom": "0x00000000000000400000000000000000000000000000000000000000000000000000000000000000000000000000000000000000000000000004000400000000000000000000000000000000000000000000000000000000000000000000000000000000000000000000000000000000000000000400000000000000000000000000000000000000000000000000000000000000000000000000000000000000000000000000000000000000000020000000000000000000000000000000000000000000000000000000000000000000000000000000000000000000000000000000000000000000000000000000000000000000000000000100000000000000",
      "type": "0x2",
      "transactionHash": "0xd2270da46635dc1bd7eef9d8663e97cbdf5697e4f9c3e76178c3b54d4800569b",
      "transactionIndex": "0x48",
      "blockHash": "0xc37539afa7d52612a38818274aafbd0b84366eb7de2c74f5ebddb01fa6099bef",
      "blockNumber": "0x9bf286",
      "gasUsed": "0x3ba1c",
      "effectiveGasPrice": "0x3cf47629",
      "from": "0x1af176aa0a73f81dea68d22c90a182be4845761b",
      "to": "0xbe757039fe37613751b1713a6327863081e21ca0",
      "contractAddress": null
    }
  ],
  "libraries": [],
  "pending": [],
  "returns": {},
  "timestamp": 1770587364599,
  "chain": 11155111,
  "commit": "59a1a9b"
}