{
  "transactions": [
    {
      "hash": "0x838d6f644eeb733ca2ed6190a39b7af7742d99965f46c9c59e5f5d3576296260",
      "transactionType": "CALL",
      "contractName": null,
      "contractAddress": "0x779877a7b0d9e8603169ddbd7836e478b4624789",
      "function": "approve(address,uint256)",
      "arguments": [
        "0x0BF3dE8c5D3e8A2B34D2BEeB17ABfCeBaf363A59",
        "28271533543028629"
      ],
      "transaction": {
        "from": "0x1af176aa0a73f81dea68d22c90a182be4845761b",
        "to": "0x779877a7b0d9e8603169ddbd7836e478b4624789",
        "gas": "0x1081f",
        "value": "0x0",
        "input": "0x095ea7b30000000000000000000000000bf3de8c5d3e8a2b34d2beeb17abfcebaf363a59000000000000000000000000000000000000000000000000006470cf5a167795",
        "nonce": "0x23",
        "chainId": "0xaa36a7"
      },
      "additionalContracts": [],
      "isFixedGasLimit": false
    },
    {
      "hash": "0xe5ca809d0a83787f790a8f70ee1f7b1c85fa5c4f1950f66757ad32aa1b44c472",
      "transactionType": "CALL",
      "contractName": null,
      "contractAddress": "0x6c4a0429ef1e29c17aff310841ee019f9b1cc65f",
      "function": "approve(address,uint256)",
      "arguments": [
        "0x0BF3dE8c5D3e8A2B34D2BEeB17ABfCeBaf363A59",
        "100000"
      ],
      "transaction": {
        "from": "0x1af176aa0a73f81dea68d22c90a182be4845761b",
        "to": "0x6c4a0429ef1e29c17aff310841ee019f9b1cc65f",
        "gas": "0x10c27",
        "value": "0x0",
        "input": "0x095ea7b30000000000000000000000000bf3de8c5d3e8a2b34d2beeb17abfcebaf363a5900000000000000000000000000000000000000000000000000000000000186a0",
        "nonce": "0x24",
        "chainId": "0xaa36a7"
      },
      "additionalContracts": [],
      "isFixedGasLimit": false
    },
    {
      "hash": "0x5cdd0a96968edb29e5a39cbf7de46fbd27a28d524a382990b06e3f1c2152ebce",
      "transactionType": "CALL",
      "contractName": null,
      "contractAddress": "0x0bf3de8c5d3e8a2b34d2beeb17abfcebaf363a59",
      "function": "ccipSend(uint64,(bytes,bytes,(address,uint256)[],address,bytes))",
      "arguments": [
        "6898391096552792247",
        "(0x0000000000000000000000001af176aa0a73f81dea68d22c90a182be4845761b, 0x, [(0x6C4a0429ef1e29c17afF310841Ee019F9b1CC65F, 100000)], 0x779877A7B0D9E8603169DdbD7836e478b4624789, 0x97a657c90000000000000000000000000000000000000000000000000000000000000000)"
      ],
      "transaction": {
        "from": "0x1af176aa0a73f81dea68d22c90a182be4845761b",
        "to": "0x0bf3de8c5d3e8a2b34d2beeb17abfcebaf363a59",
        "gas": "0x64655",
        "value": "0x0",
        "input": "0x96f4e9f90000000000000000000000000000000000000000000000005fbc02272fbf20b7000000000000000000000000000000000000000000000000000000000000004000000000000000000000000000000000000000000000000000000000000000a000000000000000000000000000000000000000000000000000000000000000e00000000000000000000000000000000000000000000000000000000000000100000000000000000000000000779877a7b0d9e8603169ddbd7836e478b4624789000000000000000000000000000000000000000000000000000000000000016000000000000000000000000000000000000000000000000000000000000000200000000000000000000000001af176aa0a73f81dea68d22c90a182be4845761b000000000000000000000000000000000000000000000000000000000000000000000000000000000000000000000000000000000000000000000000000000010000000000000000000000006c4a0429ef1e29c17aff310841ee019f9b1cc65f00000000000000000000000000000000000000000000000000000000000186a0000000000000000000000000000000000000000000000000000000000000002497a657c9000000000000000000000000000000000000000000000000000000000000000000000000000000000000000000000000000000000000000000000000",
        "nonce": "0x25",
        "chainId": "0xaa36a7"
      },
      "additionalContracts": [],
      "isFixedGasLimit": false
    }
  ],
  "receipts": [
    {
      "status": "0x1",
      "cumulativeGasUsed": "0x421f14",
      "logs": [
        {
          "address": "0x779877a7b0d9e8603169ddbd7836e478b4624789",
          "topics": [
            "0x8c5be1e5ebec7d5bd14f71427d1e84f3dd0314c0f7b2291e5b200ac8c7c3b925",
            "0x0000000000000000000000001af176aa0a73f81dea68d22c90a182be4845761b",
            "0x0000000000000000000000000bf3de8c5d3e8a2b34d2beeb17abfcebaf363a59"
          ],
          "data": "0x000000000000000000000000000000000000000000000000006470cf5a167795",
          "blockHash": "0x564b1c56cd132209cfd8cd94af39bafdf703fb71d8d54d7e5ec8ac30107b9212",
          "blockNumber": "0x9bf32d",
          "blockTimestamp": "0x69890cd0",
          "transactionHash": "0x838d6f644eeb733ca2ed6190a39b7af7742d99965f46c9c59e5f5d3576296260",
          "transactionIndex": "0x38",
          "logIndex": "0x78",
          "removed": false
        }
      ],
      "logsBloom": "0x00000004000040000000000000000000000000000000000000000000008000000000000000000000000000000000000000000000000040000000000000200000000000000000000000000000000000000000000000000000000000000000000000000000000100000000000000000000000000000000000000000000000000000000000000000000000000000000800000000000000000000000000000000000020000000000080000000000000000000000000000000000000000000000000000000000000000000000000000000004000000000000000100000000000000000010000000000000000000000000000000000000000000000000000000000000",
      "type": "0x2",
      "transactionHash": "0x838d6f644eeb733ca2ed6190a39b7af7742d99965f46c9c59e5f5d3576296260",
      "transactionIndex": "0x38",
      "blockHash": "0x564b1c56cd132209cfd8cd94af39bafdf703fb71d8d54d7e5ec8ac30107b9212",
      "blockNumber": "0x9bf32d",
      "gasUsed": "0xb499",
      "effectiveGasPrice": "0x3beca74c",
      "from": "0x1af176aa0a73f81dea68d22c90a182be4845761b",
      "to": "0x779877a7b0d9e8603169ddbd7836e478b4624789",
      "contractAddress": null
    },
    {
      "status": "0x1",
      "cumulativeGasUsed": "0x42d66f",
      "logs": [
        {
          "address": "0x6c4a0429ef1e29c17aff310841ee019f9b1cc65f",
          "topics": [
            "0x8c5be1e5ebec7d5bd14f71427d1e84f3dd0314c0f7b2291e5b200ac8c7c3b925",
            "0x0000000000000000000000001af176aa0a73f81dea68d22c90a182be4845761b",
            "0x0000000000000000000000000bf3de8c5d3e8a2b34d2beeb17abfcebaf363a59"
          ],
          "data": "0x00000000000000000000000000000000000000000000000000000000000186a0",
          "blockHash": "0x564b1c56cd132209cfd8cd94af39bafdf703fb71d8d54d7e5ec8ac30107b9212",
          "blockNumber": "0x9bf32d",
          "blockTimestamp": "0x69890cd0",
          "transactionHash": "0x5cdd0a96968edb29e5a39cbf7de46fbd27a28d524a382990b06e3f1c2152ebce",
          "transactionIndex": "0x39",
          "logIndex": "0x79",
          "removed": false
        }
      ],
      "logsBloom": "0x00000000000040000000000000000000000000000000000000000000008000000000000000000000000000000000000000000000000040000000000000200000000000000000000000000000000000000000000000000000000000000000000000000000000100000000000000000000000000000000000000000000000000000000000000000000000001000000000000000000000000000000000000000000020000000000080000040000000000000000000000000000000000000000000000000000000000000000000000000004000000000000000000000000000000000010000000000000000000000000000000010000000000000000000000000000",
      "type": "0x2",
      "transactionHash": "0x5cdd0a96968edb29e5a39cbf7de46fbd27a28d524a382990b06e3f1c2152ebce",
      "transactionIndex": "0x39",
      "blockHash": "0x564b1c56cd132209cfd8cd94af39bafdf703fb71d8d54d7e5ec8ac30107b9212",
      "blockNumber": "0x9bf32d",
      "gasUsed": "0xb75b",
      "effectiveGasPrice": "0x3beca74c",
      "from": "0x1af176aa0a73f81dea68d22c90a182be4845761b",
      "to": "0x6c4a0429ef1e29c17aff310841ee019f9b1cc65f",
      "contractAddress": null
    },
    {
      "status": "0x1",
      "cumulativeGasUsed": "0x4720c8",
      "logs": [
        {
          "address": "0x779877a7b0d9e8603169ddbd7836e478b4624789",
          "topics": [
            "0xddf252ad1be2c89b69c2b068fc378daa952ba7f163c4a11628f55a4df523b3ef",
            "0x0000000000000000000000001af176aa0a73f81dea68d22c90a182be4845761b",
            "0x000000000000000000000000a2865e4f36760f5fa5c8f958336120f2df0d974b"
          ],
          "data": "0x000000000000000000000000000000000000000000000000006470cf5a167795",
          "blockHash": "0x564b1c56cd132209cfd8cd94af39bafdf703fb71d8d54d7e5ec8ac30107b9212",
          "blockNumber": "0x9bf32d",
          "blockTimestamp": "0x69890cd0",
          "transactionHash": "0xe5ca809d0a83787f790a8f70ee1f7b1c85fa5c4f1950f66757ad32aa1b44c472",
          "transactionIndex": "0x3a",
          "logIndex": "0x7a",
          "removed": false
        },
        {
          "address": "0x779877a7b0d9e8603169ddbd7836e478b4624789",
          "topics": [
            "0x8c5be1e5ebec7d5bd14f71427d1e84f3dd0314c0f7b2291e5b200ac8c7c3b925",
            "0x0000000000000000000000001af176aa0a73f81dea68d22c90a182be4845761b",
            "0x0000000000000000000000000bf3de8c5d3e8a2b34d2beeb17abfcebaf363a59"
          ],
          "data": "0x0000000000000000000000000000000000000000000000000000000000000000",
          "blockHash": "0x564b1c56cd132209cfd8cd94af39bafdf703fb71d8d54d7e5ec8ac30107b9212",
          "blockNumber": "0x9bf32d",
          "blockTimestamp": "0x69890cd0",
          "transactionHash": "0xe5ca809d0a83787f790a8f70ee1f7b1c85fa5c4f1950f66757ad32aa1b44c472",
          "transactionIndex": "0x3a",
          "logIndex": "0x7b",
          "removed": false
        },
        {
          "address": "0x6c4a0429ef1e29c17aff310841ee019f9b1cc65f",
          "topics": [
            "0xddf252ad1be2c89b69c2b068fc378daa952ba7f163c4a11628f55a4df523b3ef",
            "0x0000000000000000000000000000000000000000000000000000000000000000",
            "0x0000000000000000000000001af176aa0a73f81dea68d22c90a182be4845761b"
          ],
          "data": "0x000000000000000000000000000000000000000000000000000000000000000a",
          "blockHash": "0x564b1c56cd132209cfd8cd94af39bafdf703fb71d8d54d7e5ec8ac30107b9212",
          "blockNumber": "0x9bf32d",
          "blockTimestamp": "0x69890cd0",
          "transactionHash": "0xe5ca809d0a83787f790a8f70ee1f7b1c85fa5c4f1950f66757ad32aa1b44c472",
          "transactionIndex": "0x3a",
          "logIndex": "0x7c",
          "removed": false
        },
        {
          "address": "0x6c4a0429ef1e29c17aff310841ee019f9b1cc65f",
          "topics": [
            "0xddf252ad1be2c89b69c2b068fc378daa952ba7f163c4a11628f55a4df523b3ef",
            "0x0000000000000000000000000000000000000000000000000000000000000000",
            "0x000000000000000000000000be757039fe37613751b1713a6327863081e21ca0"
          ],
          "data": "0x0000000000000000000000000000000000000000000000000000000000000000",
          "blockHash": "0x564b1c56cd132209cfd8cd94af39bafdf703fb71d8d54d7e5ec8ac30107b9212",
          "blockNumber": "0x9bf32d",
          "blockTimestamp": "0x69890cd0",
          "transactionHash": "0xe5ca809d0a83787f790a8f70ee1f7b1c85fa5c4f1950f66757ad32aa1b44c472",
          "transactionIndex": "0x3a",
          "logIndex": "0x7d",
          "removed": false
        },
        {
          "address": "0x6c4a0429ef1e29c17aff310841ee019f9b1cc65f",
          "topics": [
            "0xddf252ad1be2c89b69c2b068fc378daa952ba7f163c4a11628f55a4df523b3ef",
            "0x0000000000000000000000001af176aa0a73f81dea68d22c90a182be4845761b",
            "0x000000000000000000000000be757039fe37613751b1713a6327863081e21ca0"
          ],
          "data": "0x00000000000000000000000000000000000000000000000000000000000186a0",
          "blockHash": "0x564b1c56cd132209cfd8cd94af39bafdf703fb71d8d54d7e5ec8ac30107b9212",
          "blockNumber": "0x9bf32d",
          "blockTimestamp": "0x69890cd0",
          "transactionHash": "0xe5ca809d0a83787f790a8f70ee1f7b1c85fa5c4f1950f66757ad32aa1b44c472",
          "transactionIndex": "0x3a",
          "logIndex": "0x7e",
          "removed": false
        },
        {
          "address": "0x6c4a0429ef1e29c17aff310841ee019f9b1cc65f",
          "topics": [
            "0xddf252ad1be2c89b69c2b068fc378daa952ba7f163c4a11628f55a4df523b3ef",
            "0x0000000000000000000000000000000000000000000000000000000000000000",
            "0x000000000000000000000000be757039fe37613751b1713a6327863081e21ca0"
          ],
          "data": "0x0000000000000000000000000000000000000000000000000000000000000000",
          "blockHash": "0x564b1c56cd132209cfd8cd94af39bafdf703fb71d8d54d7e5ec8ac30107b9212",
          "blockNumber": "0x9bf32d",
          "blockTimestamp": "0x69890cd0",
          "transactionHash": "0xe5ca809d0a83787f790a8f70ee1f7b1c85fa5c4f1950f66757ad32aa1b44c472",
          "transactionIndex": "0x3a",
          "logIndex": "0x7f",
          "removed": false
        },
        {
          "address": "0x6c4a0429ef1e29c17aff310841ee019f9b1cc65f",
          "topics": [
            "0xddf252ad1be2c89b69c2b068fc378daa952ba7f163c4a11628f55a4df523b3ef",
            "0x000000000000000000000000be757039fe37613751b1713a6327863081e21ca0",
            "0x0000000000000000000000000000000000000000000000000000000000000000"
          ],
          "data": "0x00000000000000000000000000000000000000000000000000000000000186a0",
          "blockHash": "0x564b1c56cd132209cfd8cd94af39bafdf703fb71d8d54d7e5ec8ac30107b9212",
          "blockNumber": "0x9bf32d",
          "blockTimestamp": "0x69890cd0",
          "transactionHash": "0xe5ca809d0a83787f790a8f70ee1f7b1c85fa5c4f1950f66757ad32aa1b44c472",
          "transactionIndex": "0x3a",
          "logIndex": "0x80",
          "removed": false
        },
        {
          "address": "0xa2865e4f36760f5fa5c8f958336120f2df0d974b",
          "topics": [
            "0xd0c3c799bf9e2639de44391e7f524d229b2b55f5b1ea94b2bf7da42f7243dddd"
          ],
          "data": "0x0000000000000000000000000000000000000000000000000000000000000020000000000000000000000000000000000000000000000000de41ba4fc9d91ad90000000000000000000000001af176aa0a73f81dea68d22c90a182be4845761b0000000000000000000000001af176aa0a73f81dea68d22c90a182be4845761b000000000000000000000000000000000000000000000000000000000000034f000000000000000000000000000000000000000000000000000000000000000000000000000000000000000000000000000000000000000000000000000000000000000000000000000000000000000000000000000000000000000000000001000000000000000000000000779877a7b0d9e8603169ddbd7836e478b4624789000000000000000000000000000000000000000000000000006470cf5a16779500000000000000000000000000000000000000000000000000000000000001a000000000000000000000000000000000000000000000000000000000000001c000000000000000000000000000000000000000000000000000000000000002200c5f721e22241def5b280b7aa64d637b9aec2a9e89e95e91da41c8f8d6e9e08f000000000000000000000000000000000000000000000000000000000000000000000000000000000000000000000000000000000000000000000000000000010000000000000000000000006c4a0429ef1e29c17aff310841ee019f9b1cc65f00000000000000000000000000000000000000000000000000000000000186a00000000000000000000000000000000000000000000000000000000000000001000000000000000000000000000000000000000000000000000000000000002000000000000000000000000000000000000000000000000000000000000001600000000000000000000000000000000000000000000000000000000000000020000000000000000000000000000000000000000000000000000000000000008000000000000000000000000000000000000000000000000000000000000000c000000000000000000000000000000000000000000000000000000000000001000000000000000000000000000000000000000000000000000000000000015f900000000000000000000000000000000000000000000000000000000000000020000000000000000000000000be757039fe37613751b1713a6327863081e21ca00000000000000000000000000000000000000000000000000000000000000020000000000000000000000000f58d546030e23328fe5a9d065987b33aeae18b5a00000000000000000000000000000000000000000000000000000000000000200000000000000000000000000000000000000000000000000000000ba43b7400",
          "blockHash": "0x564b1c56cd132209cfd8cd94af39bafdf703fb71d8d54d7e5ec8ac30107b9212",
          "blockNumber": "0x9bf32d",
          "blockTimestamp": "0x69890cd0",
          "transactionHash": "0xe5ca809d0a83787f790a8f70ee1f7b1c85fa5c4f1950f66757ad32aa1b44c472",
          "transactionIndex": "0x3a",
          "logIndex": "0x81",
          "removed": false
        }
      ],
      "logsBloom": "0x00000014000040000000000000000000000000000000000000000000008000000000000000000000000000000000000000000000000040000000000000200000000000000000000000000008000000000000000000000000000000000000010010000000020100000000000020000800000000000000100000000010000000000000000000000000000001000000800000000000000000000000000000000000020000000000080400040000000000000000000000000000000100010000000000000002000000000000000000000004000000000100000100000000000020000010800000000000000000000000000004010800000000000000000000000000",
      "type": "0x2",
      "transactionHash": "0xe5ca809d0a83787f790a8f70ee1f7b1c85fa5c4f1950f66757ad32aa1b44c472",
      "transactionIndex": "0x3a",
      "blockHash": "0x564b1c56cd132209cfd8cd94af39bafdf703fb71d8d54d7e5ec8ac30107b9212",
      "blockNumber": "0x9bf32d",
      "gasUsed": "0x44a59",
      "effectiveGasPrice": "0x3beca74c",
      "from": "0x1af176aa0a73f81dea68d22c90a182be4845761b",
      "to": "0x0bf3de8c5d3e8a2b34d2beeb17abfcebaf363a59",
      "contractAddress": null
    }
  ],
  "libraries": [],
  "pending": [],
  "returns": {},
  "timestamp": 1770589392709,
  "chain": 11155111,
  "commit": "59a1a9b"
}