{
  "transactions": [
    {
      "hash": "0x19d21a8722b6069e6b7ea313db270da0c5fb63b767d2fec3079ac38b537bec5e",
      "transactionType": "CALL",
      "contractName": null,
      "contractAddress": "0x6c4a0429ef1e29c17aff310841ee019f9b1cc65f",
      "function": "grantMintAndBurnRole(address)",
      "arguments": [
        "0xbe757039Fe37613751B1713A6327863081E21cA0"
      ],
      "transaction": {
        "from": "0x1af176aa0a73f81dea68d22c90a182be4845761b",
        "to": "0x6c4a0429ef1e29c17aff310841ee019f9b1cc65f",
        "gas": "0x11789",
        "value": "0x0",
        "input": "0x7cfb3d71000000000000000000000000be757039fe37613751b1713a6327863081e21ca0",
        "nonce": "0x1b",
        "chainId": "0xaa36a7"
      },
      "additionalContracts": [],
      "isFixedGasLimit": false
    },
    {
      "hash": "0xd8ae71db5a304cafd9e4bd93745f3f3a3114d1d83a758680d971f21c390fff58",
      "transactionType": "CALL",
      "contractName": null,
      "contractAddress": "0x62e731218d0d47305aba2be3751e7ee9e5520790",
      "function": "registerAdminViaOwner(address)",
      "arguments": [
        "0x6C4a0429ef1e29c17afF310841Ee019F9b1CC65F"
      ],
      "transaction": {
        "from": "0x1af176aa0a73f81dea68d22c90a182be4845761b",
        "to": "0x62e731218d0d47305aba2be3751e7ee9e5520790",
        "gas": "0x253de",
        "value": "0x0",
        "input": "0x96ea2f7a0000000000000000000000006c4a0429ef1e29c17aff310841ee019f9b1cc65f",
        "nonce": "0x1c",
        "chainId": "0xaa36a7"
      },
      "additionalContracts": [],
      "isFixedGasLimit": false
    },
    {
      "hash": "0x9d19747b15f267e9a6538fdb2899c3e4fee635ba9b7c418b797e380bde4cba6d",
      "transactionType": "CALL",
      "contractName": null,
      "contractAddress": "0x95f29fee11c5c55d26cccf1db6772de953b37b82",
      "function": "acceptAdminRole(address)",
      "arguments": [
        "0x6C4a0429ef1e29c17afF310841Ee019F9b1CC65F"
      ],
      "transaction": {
        "from": "0x1af176aa0a73f81dea68d22c90a182be4845761b",
        "to": "0x95f29fee11c5c55d26cccf1db6772de953b37b82",
        "gas": "0x10611",
        "value": "0x0",
        "input": "0x156194da0000000000000000000000006c4a0429ef1e29c17aff310841ee019f9b1cc65f",
        "nonce": "0x1d",
        "chainId": "0xaa36a7"
      },
      "additionalContracts": [],
      "isFixedGasLimit": false
    },
    {
      "hash": "0x5d85cec56a969169e11464cbf47c687908240bdb93f9c70240d073911b787654",
      "transactionType": "CALL",
      "contractName": null,
      "contractAddress": "0x95f29fee11c5c55d26cccf1db6772de953b37b82",
      "function": "setPool(address,address)",
      "arguments": [
        "0x6C4a0429ef1e29c17afF310841Ee019F9b1CC65F",
        "0xbe757039Fe37613751B1713A6327863081E21cA0"
      ],
      "transaction": {
        "from": "0x1af176aa0a73f81dea68d22c90a182be4845761b",
        "to": "0x95f29fee11c5c55d26cccf1db6772de953b37b82",
        "gas": "0x11a52",
        "value": "0x0",
        "input": "0x4e847fc70000000000000000000000006c4a0429ef1e29c17aff310841ee019f9b1cc65f000000000000000000000000be757039fe37613751b1713a6327863081e21ca0",
        "nonce": "0x1e",
        "chainId": "0xaa36a7"
      },
      "additionalContracts": [],
      "isFixedGasLimit": false
    }
  ],
  "receipts": [
    {
      "status": "0x1",
      "cumulativeGasUsed": "0xa6f368",
      "logs": [
        {
          "address": "0x6c4a0429ef1e29c17aff310841ee019f9b1cc65f",
          "topics": [
            "0x2f8788117e7eff1d82e926ec794901d17c78024a50270940304540a733656f0d",
            "0x7429555b03aa5cf08cc5fc0890c97db295c9cec5e6bb1544bcd7fd1430dae3e2",
            "0x000000000000000000000000be757039fe37613751b1713a6327863081e21ca0",
            "0x0000000000000000000000001af176aa0a73f81dea68d22c90a182be4845761b"
          ],
          "data": "0x",
          "blockHash": "0x7ebd45de87017e7006a1eada3539e5401ccf54255e655cc8b9d638382f26d0a9",
          "blockNumber": "0x9bf277",
          "blockTimestamp": "0x69890430",
          "transactionHash": "0xd8ae71db5a304cafd9e4bd93745f3f3a3114d1d83a758680d971f21c390fff58",
          "transactionIndex": "0x73",
          "logIndex": "0x85",
          "removed": false
        }
      ],
      "logsBloom": "0x00000014000000000000000000000000000000000000000000000000008000000000000000000000000000000000000000000000000040000000000000010000000000000000000000000000000000000000000000000000000000000000010000000000000000000000000020000000000000000000000000000000000000000000000000000000000001000000000000000000000000000000000000000000000000000000000000040000000000000000000000000004001000000000000000000000000000000000000000020004000000000000000100000000000000000000000000000000000000000000000000010000000000000000000000000000",
      "type": "0x2",
      "transactionHash": "0xd8ae71db5a304cafd9e4bd93745f3f3a3114d1d83a758680d971f21c390fff58",
      "transactionIndex": "0x73",
      "blockHash": "0x7ebd45de87017e7006a1eada3539e5401ccf54255e655cc8b9d638382f26d0a9",
      "blockNumber": "0x9bf277",
      "gasUsed": "0xbf23",
      "effectiveGasPrice": "0x3ccf10f8",
      "from": "0x1af176aa0a73f81dea68d22c90a182be4845761b",
      "to": "0x6c4a0429ef1e29c17aff310841ee019f9b1cc65f",
      "contractAddress": null
    },
    {
      "status": "0x1",
      "cumulativeGasUsed": "0xa8a2ce",
      "logs": [
        {
          "address": "0x95f29fee11c5c55d26cccf1db6772de953b37b82",
          "topics": [
            "0xc54c3051ff16e63bb9203214432372aca006c589e3653619b577a3265675b716",
            "0x0000000000000000000000006c4a0429ef1e29c17aff310841ee019f9b1cc65f",
            "0x0000000000000000000000000000000000000000000000000000000000000000",
            "0x0000000000000000000000001af176aa0a73f81dea68d22c90a182be4845761b"
          ],
          "data": "0x",
          "blockHash": "0x7ebd45de87017e7006a1eada3539e5401ccf54255e655cc8b9d638382f26d0a9",
          "blockNumber": "0x9bf277",
          "blockTimestamp": "0x69890430",
          "transactionHash": "0x19d21a8722b6069e6b7ea313db270da0c5fb63b767d2fec3079ac38b537bec5e",
          "transactionIndex": "0x74",
          "logIndex": "0x86",
          "removed": false
        },
        {
          "address": "0x62e731218d0d47305aba2be3751e7ee9e5520790",
          "topics": [
            "0x09590fb70af4b833346363965e043a9339e8c7d378b8a2b903c75c277faec4f9",
            "0x0000000000000000000000006c4a0429ef1e29c17aff310841ee019f9b1cc65f",
            "0x0000000000000000000000001af176aa0a73f81dea68d22c90a182be4845761b"
          ],
          "data": "0x",
          "blockHash": "0x7ebd45de87017e7006a1eada3539e5401ccf54255e655cc8b9d638382f26d0a9",
          "blockNumber": "0x9bf277",
          "blockTimestamp": "0x69890430",
          "transactionHash": "0x19d21a8722b6069e6b7ea313db270da0c5fb63b767d2fec3079ac38b537bec5e",
          "transactionIndex": "0x74",
          "logIndex": "0x87",
          "removed": false
        }
      ],
      "logsBloom": "0x00000000000000000000000000000000002000000000000000000000008000000000000000000000008000000000000000000000000040000000002400000000000000000040000000000040000000000000000000000002000000000000000000000000020000000000000000000800000000000000000000000000000000000000000000000000000000000000000000000000000000000000000000000000000000000000000000000000000000000100000000000008000000000000000000000000400000000000000200000004000000000000000000000000000120000000000000000000000001000000000000000000000000000800020000000000",
      "type": "0x2",
      "transactionHash": "0x19d21a8722b6069e6b7ea313db270da0c5fb63b767d2fec3079ac38b537bec5e",
      "transactionIndex": "0x74",
      "blockHash": "0x7ebd45de87017e7006a1eada3539e5401ccf54255e655cc8b9d638382f26d0a9",
      "blockNumber": "0x9bf277",
      "gasUsed": "0x1af66",
      "effectiveGasPrice": "0x3ccf10f8",
      "from": "0x1af176aa0a73f81dea68d22c90a182be4845761b",
      "to": "0x62e731218d0d47305aba2be3751e7ee9e5520790",
      "contractAddress": null
    },
    {
      "status": "0x1",
      "cumulativeGasUsed": "0xa955ff",
      "logs": [
        {
          "address": "0x95f29fee11c5c55d26cccf1db6772de953b37b82",
          "topics": [
            "0x399b55200f7f639a63d76efe3dcfa9156ce367058d6b673041b84a628885f5a7",
            "0x0000000000000000000000006c4a0429ef1e29c17aff310841ee019f9b1cc65f",
            "0x0000000000000000000000001af176aa0a73f81dea68d22c90a182be4845761b"
          ],
          "data": "0x",
          "blockHash": "0x7ebd45de87017e7006a1eada3539e5401ccf54255e655cc8b9d638382f26d0a9",
          "blockNumber": "0x9bf277",
          "blockTimestamp": "0x69890430",
          "transactionHash": "0x5d85cec56a969169e11464cbf47c687908240bdb93f9c70240d073911b787654",
          "transactionIndex": "0x75",
          "logIndex": "0x88",
          "removed": false
        }
      ],
      "logsBloom": "0x00000000000000000000000000000000000000000000001000000000008000000000000000000000000000000000000000000000000040000000002000000000000000000000000000000000000000000000000000000000000000000000000000000000000000000000000000000000000000000000000000000000000000000000000000000000000000000000000000000000000000000000000000000000000000000000000000000000000000000100000000000008000000000000000000000000000004000000000200000004000000000000000000000000000000000000000000000000000001000000000000000000000400000000020000000000",
      "type": "0x2",
      "transactionHash": "0x5d85cec56a969169e11464cbf47c687908240bdb93f9c70240d073911b787654",
      "transactionIndex": "0x75",
      "blockHash": "0x7ebd45de87017e7006a1eada3539e5401ccf54255e655cc8b9d638382f26d0a9",
      "blockNumber": "0x9bf277",
      "gasUsed": "0xb331",
      "effectiveGasPrice": "0x3ccf10f8",
      "from": "0x1af176aa0a73f81dea68d22c90a182be4845761b",
      "to": "0x95f29fee11c5c55d26cccf1db6772de953b37b82",
      "contractAddress": null
    },
    {
      "status": "0x1",
      "cumulativeGasUsed": "0xaa2265",
      "logs": [
        {
          "address": "0x95f29fee11c5c55d26cccf1db6772de953b37b82",
          "topics": [
            "0x754449ec3aff3bd528bfce43ae9319c4a381b67fcd1d20097b3b24dacaecc35d",
            "0x0000000000000000000000006c4a0429ef1e29c17aff310841ee019f9b1cc65f",
            "0x0000000000000000000000000000000000000000000000000000000000000000",
            "0x000000000000000000000000be757039fe37613751b1713a6327863081e21ca0"
          ],
          "data": "0x",
          "blockHash": "0x7ebd45de87017e7006a1eada3539e5401ccf54255e655cc8b9d638382f26d0a9",
          "blockNumber": "0x9bf277",
          "blockTimestamp": "0x69890430",
          "transactionHash": "0x9d19747b15f267e9a6538fdb2899c3e4fee635ba9b7c418b797e380bde4cba6d",
          "transactionIndex": "0x76",
          "logIndex": "0x89",
          "removed": false
        }
      ],
      "logsBloom": "0x00000010000400000000000000000000000000000000000000000000000000000000000000000000000000000000000000000000000000000000002000000000000000000000000000000000000000000000000001000000000000000000010000000000020000000000000020000800000000000000000000000000000000000000000000000000000000000000000000000000000000000000000000000000000000000000000000000000000000000100000000000008000000000000000000000000000000000000000200000000000000000000000000000000000020000000000000000000000001000000000000000000000000000000020001000000",
      "type": "0x2",
      "transactionHash": "0x9d19747b15f267e9a6538fdb2899c3e4fee635ba9b7c418b797e380bde4cba6d",
      "transactionIndex": "0x76",
      "blockHash": "0x7ebd45de87017e7006a1eada3539e5401ccf54255e655cc8b9d638382f26d0a9",
      "blockNumber": "0x9bf277",
      "gasUsed": "0xcc66",
      "effectiveGasPrice": "0x3ccf10f8",
      "from": "0x1af176aa0a73f81dea68d22c90a182be4845761b",
      "to": "0x95f29fee11c5c55d26cccf1db6772de953b37b82",
      "contractAddress": null
    }
  ],
  "libraries": [],
  "pending": [],
  "returns": {},
  "timestamp": 1770587185428,
  "chain": 11155111,
  "commit": "59a1a9b"
}